{
  "contractName": "Adoption",
  "abi": [
    {
      "constant": true,
      "inputs": [],
      "name": "owner",
      "outputs": [
        {
          "name": "",
          "type": "address"
        }
      ],
      "payable": false,
      "stateMutability": "view",
      "type": "function"
    },
    {
      "constant": false,
      "inputs": [
        {
          "name": "newOwner",
          "type": "address"
        }
      ],
      "name": "transferOwnership",
      "outputs": [],
      "payable": false,
      "stateMutability": "nonpayable",
      "type": "function"
    },
    {
      "payable": true,
      "stateMutability": "payable",
      "type": "fallback"
    },
    {
      "anonymous": false,
      "inputs": [
        {
          "indexed": true,
          "name": "previousOwner",
          "type": "address"
        },
        {
          "indexed": true,
          "name": "newOwner",
          "type": "address"
        }
      ],
      "name": "OwnershipTransferred",
      "type": "event"
    },
    {
      "constant": true,
      "inputs": [],
      "name": "getOwner",
      "outputs": [
        {
          "name": "",
          "type": "address"
        }
      ],
      "payable": false,
      "stateMutability": "view",
      "type": "function"
    },
    {
      "constant": false,
      "inputs": [
        {
          "name": "petId",
          "type": "uint256"
        }
      ],
      "name": "adopt",
      "outputs": [
        {
          "name": "",
          "type": "uint256"
        }
      ],
      "payable": true,
      "stateMutability": "payable",
      "type": "function"
    },
    {
      "constant": true,
      "inputs": [],
      "name": "getAdopters",
      "outputs": [
        {
          "name": "",
          "type": "address[16]"
        }
      ],
      "payable": false,
      "stateMutability": "view",
      "type": "function"
    }
  ],
  "bytecode": "0x6060604052336000806101000a81548173ffffffffffffffffffffffffffffffffffffffff021916908373ffffffffffffffffffffffffffffffffffffffff1602179055506104d3806100536000396000f30060606040526004361061006d576000357c0100000000000000000000000000000000000000000000000000000000900463ffffffff1680633de4eb171461006f5780638588b2c5146100c0578063893d20e8146100ec5780638da5cb5b14610141578063f2fde38b14610196575b005b341561007a57600080fd5b6100826101cf565b6040518082601060200280838360005b838110156100ad578082015181840152602081019050610092565b5050505090500191505060405180910390f35b6100d66004808035906020019091905050610250565b6040518082815260200191505060405180910390f35b34156100f757600080fd5b6100ff6102c5565b604051808273ffffffffffffffffffffffffffffffffffffffff1673ffffffffffffffffffffffffffffffffffffffff16815260200191505060405180910390f35b341561014c57600080fd5b6101546102ee565b604051808273ffffffffffffffffffffffffffffffffffffffff1673ffffffffffffffffffffffffffffffffffffffff16815260200191505060405180910390f35b34156101a157600080fd5b6101cd600480803573ffffffffffffffffffffffffffffffffffffffff16906020019091905050610313565b005b6101d7610468565b6001601080602002604051908101604052809291908260108015610246576020028201915b8160009054906101000a900473ffffffffffffffffffffffffffffffffffffffff1673ffffffffffffffffffffffffffffffffffffffff16815260200190600101908083116101fc575b5050505050905090565b60008082101580156102635750600f8211155b151561026e57600080fd5b3360018360108110151561027e57fe5b0160006101000a81548173ffffffffffffffffffffffffffffffffffffffff021916908373ffffffffffffffffffffffffffffffffffffffff160217905550819050919050565b60008060009054906101000a900473ffffffffffffffffffffffffffffffffffffffff16905090565b6000809054906101000a900473ffffffffffffffffffffffffffffffffffffffff1681565b6000809054906101000a900473ffffffffffffffffffffffffffffffffffffffff1673ffffffffffffffffffffffffffffffffffffffff163373ffffffffffffffffffffffffffffffffffffffff1614151561036e57600080fd5b600073ffffffffffffffffffffffffffffffffffffffff168173ffffffffffffffffffffffffffffffffffffffff16141515156103aa57600080fd5b8073ffffffffffffffffffffffffffffffffffffffff166000809054906101000a900473ffffffffffffffffffffffffffffffffffffffff1673ffffffffffffffffffffffffffffffffffffffff167f8be0079c531659141344cd1fd0a4f28419497f9722a3daafe3b4186f6b6457e060405160405180910390a3806000806101000a81548173ffffffffffffffffffffffffffffffffffffffff021916908373ffffffffffffffffffffffffffffffffffffffff16021790555050565b610200604051908101604052806010905b600073ffffffffffffffffffffffffffffffffffffffff1681526020019060019003908161047957905050905600a165627a7a7230582038eed796fc212f4bb228bd5e5a85e33f4f0d09e694aeaf2f9e62cc3003920d880029",
  "source": "pragma solidity ^0.4.17;\n\nimport \"./Ownable.sol\";\n\ncontract Adoption is Ownable {\n    address[16] private adopters;\n\n    function () public payable {\n\n    }\n\n    function getOwner() public view returns (address) {\n        return owner;\n    }\n\n    function adopt(uint petId) public payable returns (uint) {\n        require(petId >= 0 && petId <= 15);\n\n        adopters[petId] = msg.sender;\n        // owner.transfer(0.1 ether);\n        return petId;\n    }\n\n    function getAdopters() public view returns (address[16]) {\n        return adopters;\n    }\n}",
  "sourcePath": "/home/dotrungkien/blockchain/boxes/pet-shop/contracts/Adoption.sol",
  "compiler": {
    "name": "solc",
    "version": "0.4.19+commit.c4cbbb05.Emscripten.clang"
  },
  "schemaVersion": "2.0.0",
  "updatedAt": "2018-04-02T08:12:14.299Z"
}