{
  "contractName": "Adoption",
  "abi": [
    {
      "anonymous": false,
      "inputs": [
        {
          "indexed": false,
          "name": "petId",
          "type": "uint256"
        }
      ],
      "name": "PetAdopted",
      "type": "event"
    },
    {
      "constant": false,
      "inputs": [
        {
          "name": "petId",
          "type": "uint256"
        }
      ],
      "name": "adopt",
      "outputs": [
        {
          "name": "",
          "type": "uint256"
        }
      ],
      "payable": false,
      "stateMutability": "nonpayable",
      "type": "function"
    },
    {
      "constant": true,
      "inputs": [],
      "name": "getAdopters",
      "outputs": [
        {
          "name": "",
          "type": "address[16]"
        }
      ],
      "payable": false,
      "stateMutability": "view",
      "type": "function"
    }
  ],
  "bytecode": "0x6060604052341561000f57600080fd5b6102718061001e6000396000f30060606040526004361061004c576000357c0100000000000000000000000000000000000000000000000000000000900463ffffffff1680633de4eb17146100515780638588b2c5146100a2575b600080fd5b341561005c57600080fd5b6100646100d9565b6040518082601060200280838360005b8381101561008f578082015181840152602081019050610074565b5050505090500191505060405180910390f35b34156100ad57600080fd5b6100c3600480803590602001909190505061015a565b6040518082815260200191505060405180910390f35b6100e1610206565b6000601080602002604051908101604052809291908260108015610150576020028201915b8160009054906101000a900473ffffffffffffffffffffffffffffffffffffffff1673ffffffffffffffffffffffffffffffffffffffff1681526020019060010190808311610106575b5050505050905090565b600080821015801561016d5750600f8211155b151561017857600080fd5b3360008360108110151561018857fe5b0160006101000a81548173ffffffffffffffffffffffffffffffffffffffff021916908373ffffffffffffffffffffffffffffffffffffffff1602179055507f87b11a36a7d8951907601f47f6fa4a32bffadebbff2e4894922b25922d340d85826040518082815260200191505060405180910390a1819050919050565b610200604051908101604052806010905b600073ffffffffffffffffffffffffffffffffffffffff1681526020019060019003908161021757905050905600a165627a7a72305820dbfcd5bf1d9795a02d88ae3b34266578c02bf6f83e3fb360533e4045aaa3a5190029",
  "source": "pragma solidity ^0.4.17;\n\ncontract Adoption {\n    address[16] private adopters;\n    event PetAdopted(uint petId);\n\n    function adopt(uint petId) public returns (uint) {\n        require(petId >= 0 && petId <= 15);\n\n        adopters[petId] = msg.sender;\n        PetAdopted(petId);\n        return petId;\n    }\n\n    function getAdopters() public view returns (address[16]) {\n        return adopters;\n    }\n}",
  "sourcePath": "/home/dotrungkien/blockchain/boxes/pet-shop/contracts/Adoption.sol",
  "compiler": {
    "name": "solc",
    "version": "0.4.19+commit.c4cbbb05.Emscripten.clang"
  },
  "schemaVersion": "2.0.0",
  "updatedAt": "2018-03-27T07:22:53.212Z"
}